:100000000210789000D174FFF0A37418F0A374A6C6
:10001000F0E47F08FEFDFC9000E9E0F8A3E0F9A31E
:10002000E0FAA3E0FBD3120A15400A9000E9120A95
:100030005800000008E49000D5F09000D4F0900043
:10004000DCF022020046C0E0C0F0C083C082C0D015
:1000500075D00820D90302049FE5D9543F700302EC
:10006000049514602E24E1700302041724FE607AC4
:1000700024F270030200FE240F600302049B300A86
:10008000028055300D02805CE5D254FC4402F5D26A
:1000900002049B20DE0302049B300C06120E840235
:1000A000049B90000AE5DBF0E0700302049BE4FF90
:1000B00090000AE06F6015744A2FF582E43400F571
:1000C00083E0FE74222FF8EEF60F80E412129330D4
:1000D0000C0302049B300A06120C7402049B300EBF
:1000E0000302049B12121202049B75D500E5D4543E
:1000F000FC4402F5D49000D77401F002049B9000F8
:100100000AE5DBF0E0640860030203DF900006E02C
:100110009000CBF0900007E0700D9000CBE0D394FE
:100120007F7480948040069000CB747FF090000A2A
:10013000E4F0900000E0546070030201C7A3E09077
:1001400000CAF064FE60030203E59000CC74FFF087
:10015000A37418F0A3745DF090000A7401F090008D
:10016000CBE0D39401400890000AE09000CBF090DF
:1001700000CBE0FFC394087480948040077E08CFD2
:10018000EECF800090000AEFF07E00C87400C8CC6B
:100190007400CCCD7401CD9000CCE0FBA3E0FAA3B9
:1001A000E0F91209229000CBE0FF90000AE0FEC3C4
:1001B000EF9E9000CBF0EEFF9000CDE48FF012099F
:1001C000B09000D60203B7900001E09000CAF07032
:1001D000030203BC14700302035524FC70030203E2
:1001E0001924FD70030203241470030203411470E8
:1001F000030203A2240460030203DD900003E02451
:10020000FE602814603B24E1700302029124216007
:10021000030202AF9000CC74FFF0A37417F0A37434
:10022000F4F090000A7412F00202B59000CC74FF52
:10023000F0A37418F0A37406F090000A7439F080EB
:1002400074900002E014601D14603024027060900D
:1002500000CC74FFF0A37418F0A3743FF090000A70
:100260007404F080509000CC74FFF0A37418F0A3D5
:100270007443F090000A740EF0803A9000CC74FF42
:10028000F0A37418F0A37451F090000A740CF0807D
:1002900024900002E070169000CC74FFF0A3741755
:1002A000F0A374B5F090000A743FF08008800090CD
:1002B000000A74FFF090000AE0FF9000CBE0D39FAB
:1002C0004002EFF09000CBE0FFC39408748094806C
:1002D00040077E08CFEECF800090000AEFF07E004E
:1002E000C87400C8CC7400CCCD7401CD9000CCE0B3
:1002F000FBA3E0FAA3E0F91209229000CBE0FF9003
:10030000000AE0FEC3EF9E9000CBF0EEFF9000CD20
:10031000E48FF01209B00203E5900002E09000CBF8
:10032000F00203E59000CFE0900000F09000CBE0F9
:10033000C394017480948050030203E590000A8006
:1003400076900002E09000CFF07BFF7A177996124A
:1003500005580203E5900000E0541F6402704190CC
:100360000004E014602914601124816012147030BC
:10037000E5D454BC4402F5D4806B53D4738066E555
:10038000D254BC4402F5D2300D0E12121280095321
:10039000D273300D03121212A20E9209C20E8045C2
:1003A000803D900000E4F09000CBE0C394017480A5
:1003B0009480403190000A7401F08029900000E49C
:1003C000F0A3F09000CBE0FFC3940274809480907F
:1003D000000A40057402F0800CEFF0800880009065
:1003E000000A74FFF090000AE0FF7E00F4700C90A9
:1003F00000CA74FFF075DCCF02049BD3EF9408EEC3
:1004000064809480500890000AE0F5DD800375DD7B
:100410000075DCC002049B9000CAE024FB606014FD
:10042000706B9000CBE0FFC3940874809480400709
:100430007E08CFEECF800090000AEFF07E00C874F7
:1004400000C8CC7400CCCD7401CD9000CCE0FBA3EF
:10045000E0FAA3E0F91209229000CBE0FF90000A35
:10046000E0FEC3EF9E9000CBF0EEFF9000CDE48F56
:10047000F01209B090000AE0F5DD63DC40801CE575
:10048000E35480FF9000CBE04FF5E3800375DD007F
:1004900075DC02800675DD0063DC80C2D9804330E4
:1004A000D8227BFF7A17799E12055875DC0275D227
:1004B0001275D41275E300C2DAC2D9C2D89000D640
:1004C000E4F0801E30DA18C2DAE5DA7BFF30E206AB
:1004D0007A1779A580047A1779AE120558800375CA
:1004E000D8FFD0D0D082D083D0F0D0E032E5102435
:1004F0000EF582E43400F583E005102290000B3005
:10050000070390000EE475F001120AEE020948207C
:1005100000E97F2ED2008018EF540F2490D434408D
:10052000D4FF30040BEF24BFB41A0050032461FF42
:10053000E511600215110514E5147002051330076A
:100540000E90000BE475F001120AEEEF020ADC02D5
:1005500016237403D2078003E4C207F51090000B42
:10056000120B05E4F511F513F514E51160077F2072
:1005700012053080F57512FFC201C200C202C2032B
:10058000C205C206C2081204FCFF700D3007057FC9
:1005900000120541AF14AE1322B4255FC2D5C204C8
:1005A0001204FCFF24D0B40A00501A75F00A781126
:1005B00030D50508B6FF0106C6A426F620D504707E
:1005C00002D20380D924CFB41A00EF5004C2E5D27E
:1005D00004020742D20180C6D20080C0D20280BC91
:1005E000D2D580BAD20580B47F2012053020020710
:1005F0007401B5110040F11204EDFF12053002053F
:100600006AD208D20680951204EDFB1204EDFA12AC
:1006100004EDF94A4B700679137A087BFF20022E0D
:10062000E511602A7E008E827583001209616006E2
:100630000EEE651270F0C2D5EBC0E0EAC0E0E9C092
:10064000E0EE120789D0E0F9D0E0FAD0E0FB120921
:1006500048FF60AAEBC0E0EAC0E0E9C0E012053064
:10066000D0E02401F9D0E03400FAD0E0FBE5120438
:1006700060DCD512D980877BFF7A077985D202802A
:100680009C791080027908C206C2088008D2D57908
:100690000A8004790AC2D5E512047002F512E4FA60
:1006A000FDFEFF1204EDFC7B082001131204EDFD9A
:1006B0007B1030000A1204EDFE1204EDFF7B20ECEB
:1006C0003382D592D55013C3E43000069FFFE49ED9
:1006D000FEE42001039DFDE49CFCE4CBF8C201ECA8
:1006E000700CCFCECDCCE824F8F870F38017C3EFB0
:1006F00033FFEE33FEED33FDEC33FCEB33FB99407F
:1007000002FB0FD8E9EB300105F8D0E0C448B20194
:10071000C0E00AEC4D4E4F78207B0070C2EAB51263
:100720000040BCC0E012078BD0F0D0E0200104C430
:10073000C0E0C4B201C0F0120519D0F0D5F0EB0250
:10074000056A120A8906075306815805D84C05D454
:100750004206854F068D44068D4905ED43069355A7
:1007600006774606774506774708335005DC2D05A2
:10077000E02E06032B05E423060120081C2A059C15
:1007800048000005FB3F3F3F00790AA2D520031433
:10079000300509B910020404B9080104A2D52006E5
:1007A000025001042002689202B511005034C0E0EA
:1007B0007F203003197F30A20272067205500F129B
:1007C00007E2C202C206C205C2087F30800F3005B0
:1007D00003E9C0E0120530300503D0E0F9D0E0B500
:1007E00011CC3005177F30B9100C1205307F58300E
:1007F00004077F788003B908031205303002057FB3
:100800002D0205307F202008F87F2B2006F322924E
:100810000280CF286E756C6C2900D2011204ED3075
:1008200001F8C201781130D50108F602059C2D505F
:100830004349581204ED2403B405004001E4900834
:100840002E93120521743A120521D2037511040268
:100850000681E709F608DFFA8046E709F208DFFAC1
:10086000803E88828C83E709F0A3DFFA8032E309B7
:10087000F608DFFA8078E309F208DFFA80708882F0
:100880008C83E309F0A3DFFA806489828A83E0A382
:10089000F608DFFA805889828A83E0A3F208DFFA3B
:1008A000804C80D280FA80C680D4806980F2803308
:1008B000801080A680EA809A80A880DA80E280CAD0
:1008C000803389828A83ECFAE493A3C8C582C8CCBA
:1008D000C583CCF0A3C8C582C8CCC583CCDFE9DE14
:1008E000E7800D89828A83E493A3F608DFF9ECFAA6
:1008F000A9F0EDFB2289828A83ECFAE0A3C8C582C5
:10090000C8CCC583CCF0A3C8C582C8CCC583CCDF16
:10091000EADEE880DB89828A83E493A3F208DFF9C8
:1009200080CC88F0EF60010E4E60C388F0ED2402A9
:10093000B4040050B9F582EB2402B4040050AF2394
:10094000234582239008A273BB010689828A83E033
:10095000225002E722BBFE02E32289828A83E493CB
:1009600022BB010CE58229F582E5833AF583E0227A
:100970005006E92582F8E622BBFE06E92582F8E268
:1009800022E58229F582E5833AF583E49322F8BBD8
:10099000010DE58229F582E5833AF583E8F02250DE
:1009A00006E92582C8F622BBFE05E92582C8F222A7
:1009B000C5F0F8A3E028F0C5F0F8E58215827002D2
:1009C0001583E038F022E88FF0A4CC8BF0A42CFC47
:1009D000E98EF0A42CFC8AF0EDA42CFCEA8EF0A4A5
:1009E000CDA8F08BF0A42DCC3825F0FDE98FF0A434
:1009F0002CCD35F0FCEB8EF0A4FEA9F0EB8FF0A42B
:100A0000CFC5F02ECD39FEE43CFCEAA42DCE35F066
:100A1000FDE43CFC22EB9FF5F0EA9E42F0E99D42AA
:100A2000F0E89C45F022E8600FECC313FCED13FDE9
:100A3000EE13FEEF13FFD8F122E8600FEFC333FF90
:100A4000EE33FEED33FDEC33FCD8F122ECF0A3EDF8
:100A5000F0A3EEF0A3EFF022A8828583F0D083D03C
:100A600082120A6F120A6F120A6F120A6FE473E49D
:100A700093A3C583C5F0C583C8C582C8F0A3C58349
:100A8000C5F0C583C8C582C822D083D082F8E4935C
:100A90007012740193700DA3A393F8740193F582FF
:100AA0008883E4737402936860EFA3A3A380DFECF0
:100AB0008EF0A4CCC5F0CCCDF8EFA4CEC5F02DFDC2
:100AC000E43CFCE8A42EC8C5F03DFDE43CFCEFA4EA
:100AD000FFE5F028FEE43DFDE43CFC22BB01068975
:100AE000828A83F0225002F722BBFE01F322F8E053
:100AF000FBA3A3E0F925F0F0E582158270021583CF
:100B0000E0FA38F022EBF0A3EAF0A3E9F02278381B
:100B1000E6FFE4FCFDFE7808120A39ECC0E0EDC007
:100B2000E0EEC0E0EFC0E07839E6FFD0E0FBD0E0D7
:100B3000FAD0E0F9D0E0F8EB4FFFEAFEE9FDE8FC7F
:100B4000E4FB7A10F9F81209C69000E9120A4C7811
:100B500034E6FFE4FCFDFE7810120A39ECC0E0ED4B
:100B6000C0E0EEC0E0EFC0E07833E6FFE4FCFDFE5D
:100B70007818120A39D0E0FBD0E0FAD0E0F9D0E0E2
:100B8000F8EF4BFFEE4AFEED49FDEC48C0E0EDC04A
:100B9000E0EEC0E0EFC0E07835E6FFE4FCFDFE7873
:100BA00008120A39D0E0FBD0E0FAD0E0F9D0E0F842
:100BB000EF4BFFEE4AFEED49FDEC48C0E0EDC0E032
:100BC000EEC0E0EFC0E07836E6FFD0E0FBD0E0FA20
:100BD000D0E0F9D0E0F8EB4FFFEAFEE9FDE8FC9049
:100BE00000D8120A4C9000D8E0FCA3E0FDA3E0FE80
:100BF000A3E0FFE4FB7A10F9F81209C69000D812BE
:100C00000A4C7F407E4B7D4C7C009000D8E0F8A3DE
:100C1000E0F9A3E0FAA3E0FBC3120A1550487839C3
:100C2000E690000CF0E490000BF090000CE0FF90D8
:100C3000000BE0FEC39F502EEEFF7E007C107D0077
:100C4000120AAF9000D8E0F8A3E0F9A3E0FAA3E01D
:100C50002FFFEA3EFEE93DFDE83CFC12150D900039
:100C60000BE004F080C4E49000D5F09000D4F09044
:100C700000DCF022E47F40FEFDFC9000E9E0F8A3F8
:100C8000E0F9A3E0FAA3E0FBD3120A15402A900092
:100C90000B7440F09000E9E0FCA3E0FDA3E0FEA3AC
:100CA000E09440FFEE9400FEED9400FDEC9400FC17
:100CB0009000E9120A4C80179000E9A3A3A3E090EA
:100CC000000BF09000E9120A5800000000C20A3040
:100CD0000B709000D8E0FCA3E0FDA3E0FEA3E0FFD2
:100CE00090000BE0FB900010E4F0A3EBF0A3740184
:100CF000F0A37400F0A3748AF012118E9000D8E073
:100D0000F8A3E0F9A3E0FAA3E0FB90000BE0FFE416
:100D1000FCFDFEEB2FFFEE3AFEED39FDEC38FC90CA
:100D200000D8120A4CE4FFFEFDFC9000E9E0F8A3B5
:100D3000E0F9A3E0FAA3E0FBC3120A157038C20B76
:100D40008034E4FF90000BE0FEEFC39E502890003B
:100D5000D1E0FBA3E0FAA3E0F9120948FE748A2F60
:100D6000F582E43400F583EEF09000D2E475F001F2
:100D70001209B00F80CE90000BE0F5D353D2FC22C5
:100D80007838E6FFE4FCFDFE7808120A39ECC0E092
:100D9000EDC0E0EEC0E0EFC0E07839E6FFD0E0FB68
:100DA000D0E0FAD0E0F9D0E0F8EB4FFFEAFEE9FD41
:100DB000E8FCE4FB7A10F9F81209C69000E9120A7F
:100DC0004C7834E6FFE4FCFDFE7810120A39ECC0E2
:100DD000E0EDC0E0EEC0E0EFC0E07833E6FFE4FC19
:100DE000FDFE7818120A39D0E0FBD0E0FAD0E0F925
:100DF000D0E0F8EF4BFFEE4AFEED49FDEC48C0E0D5
:100E0000EDC0E0EEC0E0EFC0E07835E6FFE4FCFDC9
:100E1000FE7808120A39D0E0FBD0E0FAD0E0F9D031
:100E2000E0F8EF4BFFEE4AFEED49FDEC48C0E0ED87
:100E3000C0E0EEC0E0EFC0E07836E6FFD0E0FBD0E7
:100E4000E0FAD0E0F9D0E0F8EB4FFFEAFEE9FDE888
:100E5000FC9000D8120A4C9000D8E0FCA3E0FDA35F
:100E6000E0FEA3E0FFE4FB7A10F9F81209C6900057
:100E7000D8120A4CE49000D5F09000D4F09000DC39
:100E8000F0D20B2290000BE5DBF0E4FF90000BE0CA
:100E9000FB6F6015744A2FF582E43400F583E0FEA1
:100EA00074622FF8EEF60F80E39000D8E0FCA3E028
:100EB000FDA3E0FEA3E0FF900010E4F0A3EBF0A39D
:100EC000E4F0A37400F0A37462F0120FE99000D86C
:100ED000E0F8A3E0F9A3E0FAA3E0FB90000BE0FF49
:100EE000E4FCFDFEEB2FFFEE3AFEED39FDEC38FCA5
:100EF0009000D8120A4C9000E9E0FCA3E0FDA3E0CA
:100F0000FEA3E0FFECC0E0EDC0E0EEC0E0EFC0E02B
:100F100090000BE0FFCBEFCBD0E0FFD0E0FED0E0C5
:100F2000FDD0E0FCC3EF9BFFEE9400FEED9400FDCE
:100F3000EC9400FC9000E9120A4CE4FFFEFDFC90EA
:100F400000E9E0F8A3E0F9A3E0FAA3E0FBC3120A8A
:100F5000157005C20C12121222C20A9000D4740538
:100F6000F09000DC7420F09000D57401F07F0FEF5A
:100F7000B410005073900F7CF8282873020FAC0255
:100F80000FAC020FB4020FB4020FB6020FB6020F7D
:100F9000AC020FB8020FB8020FBF020FC4020FBF9E
:100FA000020FAE020FC4020FCE020FB68000E49013
:100FB00000D5F0228002802543D203D20E80174351
:100FC000D20C801C43D203D20E43D20C800843D2F1
:100FD00003D20E43D20C9000D57402F02243D20308
:100FE000D20E9000D57401F02290000C120A4C121F
:100FF000175AE4FF12170A12174FC29475F90230FC
:10100000FBFD90000CA3E0FDA3E0FEA3E0FFE4FCE9
:101010007810120A268FF930FBFD90000CA3A3E094
:10102000FEA3E0FFE4FDFC7808120A268FF930FBEE
:10103000FD90000CE0FCA3E0FDA3A3E0FF8FF930DE
:10104000FBFDE4FFFED3900011E09F900010E09EB6
:10105000401E900012E0FBA3E0FAA3E0F98F828E1D
:1010600083120961F5F930FBFD0FBF00010E80D539
:10107000D29412174402175A787FE4F6D8FD75818E
:10108000A10210BF0215F9E493A3F8E493A340036F
:10109000F68001F208DFF48029E493A3F8540724D2
:1010A0000CC8C333C4540F4420C8834004F4568092
:1010B0000146F6DFE4800B01020408102040809016
:1010C000166AE47E019360BCA3FF543F30E50954E7
:1010D0001FFEE493A360010ECF54C025E060A8403A
:1010E000B8E493A3FAE493A3F8E493A3C8C582C831
:1010F000CAC583CAF0A3C8C582C8CAC583CADFE906
:10110000DEE780BE7831E6120A89113E0011440301
:10111000113812115B1A11611B116B1E114D231135
:101120004725114128113B2A114A2F116E43117195
:101130004A115E5A0000117402130D020B0E0216C2
:10114000D6020D80021384020003021736E49000D9
:10115000D5F09000D4F09000DCF022021565021565
:10116000AF1216E89000D07401F022021728021482
:101170005B0214B49000D47405F09000DC7420F08D
:101180009000D57401F0C20A7F0E120F6F229000FA
:101190000C120A4CC29475F90B30FBFD90000CA3A5
:1011A000E0FDA3E0FEA3E0FFE4FC7810120A268F26
:1011B000F930FBFD90000CA3A3E0FEA3E0FFE4FDEB
:1011C000FC7808120A268FF930FBFD90000CA3A3CF
:1011D000A3E0FF8FF930FBFDE4F5F930FBFDE4FF00
:1011E000FED3900011E09F900010E09E402175F921
:1011F000FF30FBFD900012E0FBA3E0FAA3E0F98FC3
:10120000828E83E5F912098E0FBF00010E80D2D2C3
:1012100094229000D1E4F0A37400F0A37422F0C2F1
:101220000DC20AF876550876530876420876539030
:1012300000DDE008F6A3E008F6A3E008F6A3E00866
:10124000F6E408F608F69000EAE008F69000E9E017
:1012500008F69000D5E008F6E4FFEFC3940D748023
:10126000948050289000D1E0FBA3E0FAA3E0F912AB
:101270000948FE748A2FF582E43400F583EEF0907D
:1012800000D2E475F0011209B00F80CE75D30D5372
:10129000D2FC227822E66455706F08E664537067CA
:1012A00008E66442705F08E66443705D782AE69061
:1012B00000ECF008E69000EBF008E69000EAF00899
:1012C000E69000E9F07826E69000DDF008E6A3F06D
:1012D00008E6A3F008E6A3F09000E9E0FCA3E0FD37
:1012E000A3E0FEA3E0FFEC4D4E4F6014782EE6D352
:1012F00030E701C3920C782EE6C330E701D3920A9F
:10130000D20D0211048002800043D20322209134C6
:101310009000D174FFF0A37418F0A37482F0E47FFE
:1013200024FEFDFC9000E9E0F8A3E0F9A3E0FAA3B5
:10133000E0FBD3120A15403E9000E9120A58000063
:10134000002480329000D174FFF0A37418F0A374CD
:101350005EF0E47F24FEFDFC9000E9E0F8A3E0F9F4
:10136000A3E0FAA3E0FBD3120A15400A9000E912A9
:101370000A5800000024E49000D5F09000D4F090CA
:1013800000DCF022A209720E5030A20E9209C20EA9
:1013900078227670E408F69000D4E008F6E408F6C7
:1013A00008F608F608F608760A08F608F608F608B9
:1013B000F69000DCE008F6E48024A20E9209C20E4A
:1013C00078227670E408F608F608F608F608F608BB
:1013D000F608760A08F608F608F608F608F608F69B
:1013E00008F608F608F608F69000D1F0A37400F0AD
:1013F000A37422F0E49000D5F022E4F5E253E27FFA
:1014000043E229F5E353E2BF53D1FB75D18043D1C9
:1014100001CE7400CECF744ACF8EEF8FEE75EAC046
:1014200075D212CE7400CECF7400CF8EED8FEC75D6
:10143000DC02F5DDF5D3CE7401CECF740ACF8EE594
:101440008FE475EB0475D412F5D543E10443E10252
:1014500043E10143D81FD2EAD2AF22C8740BC8CCF3
:101460007400CCCD7401CD7BFF7A1879CA7E007FE1
:10147000141209229000D17401F0A37400F0A37437
:101480000BF0E47F14FEFDFC9000E9E0F8A3E0F926
:10149000A3E0FAA3E0FBD3120A15400A9000E91278
:1014A0000A5800000014E49000D5F09000D4F090A9
:1014B00000DCF022C8740BC8CC7400CCCD7401CD14
:1014C0007BFF7A1879DE7E007F081209229000D116
:1014D0007401F0A37400F0A3740BF0E47F08FEFD28
:1014E000FC9000E9E0F8A3E0F9A3E0FAA3E0FBD365
:1014F000120A15400A9000E9120A5800000008E498
:101500009000D5F09000D4F09000DCF02290000D17
:10151000120A4C12171AC29475F92030FBFD900084
:101520000DA3E0FDA3E0FEA3E0FFE4FC7810120AA7
:10153000268FF930FBFD90000DA3A3E0FEA3E0FF92
:10154000E4FDFC7808120A268FF930FBFD90000DAF
:10155000E0FCA3E0FDA3E0FEA3E0FF8FF930FBFD7C
:10156000D29402175A7833E6643F703F7F0CFEFD39
:10157000FC9000E9E0F8A3E0F9A3E0FAA3E0FBD3D4
:10158000120A15400A9000E9120A580000000C9057
:1015900000D174FFF0A37418F0A374AEF0E49000CF
:1015A000D5F09000D4F09000DCF022120F59227890
:1015B00033E6643F703F7F10FEFDFC9000E9E0F8E9
:1015C000A3E0F9A3E0FAA3E0FBD3120A15400A90C6
:1015D00000E9120A58000000109000D174FFF0A337
:1015E0007418F0A374BAF0E49000D5F09000D4F031
:1015F0009000DCF022120F59221216B27F647E0096
:1016000012168812164A1216FA12174FE4FF121712
:101610000A1213FA9000D6E060FA7F647E00121678
:101620008880F7EFB40A07740D12162E740A3098EA
:1016300011A899B8130CC2983098FDA899C298B80F
:1016400011F63099FDC299F59922759850C2CDC214
:10165000CC438780E589540F4420F58943C9A075A0
:101660008BFF758DFFD28ED299224100CF004100B1
:10167000D6004100D7004100D0004800E100000042
:101680000000000000C10B00AD07AC06ED4C600E81
:101690007FE87E031216C4ED1D70F11C80EE22C29D
:1016A0009475F90530FBFD75F9FF30FBFDAFF9D2FC
:1016B000942275A15575A1AAE5B954F84405F5B968
:1016C000E4F5A122EF4E600D05A105A105A1EF1FD4
:1016D00070F21E80EF22C20CC20AE49000D5F09096
:1016E00000D4F09000DCF022C20CC20AE49000D5D5
:1016F000F09000D4F09000DCF02253FC7775FA6093
:1017000075FB024392F04393F022C29475F90130C5
:10171000FBFD8FF930FBFDD2942212169FEF54028D
:101720006402600312174F22E49000D5F09000D4B9
:10173000F09000DCF022E49000D5F09000D4F0901E
:1017400000DCF022C29475F90430FBFDD29422C271
:101750009475F90630FBFDD2942212169FEF20E01B
:10176000F9226368726F6D652068747470733A2F24
:101770002F7777772E62696C6962696C692E636F67
:101780006D2F766964656F2F425631755434793107
:10179000503743580A00436F6E6669670A00526506
:1017A0007365740A0053757370656E640A0041773F
:1017B000616B650A0005010906A101050719E02909
:1017C000E7150025017501950881029501750881CD
:1017D0000195037501050819012903910295057505
:1017E0000191019506750815002565050719002961
:1017F000658100C012011001000000084433333538
:10180000000101020001090239000201008064099F
:10181000040000020806500007050102400000070E
:1018200005810240000009040100010301010009D3
:101830002111010001223F00070582030800000476
:101840000309040E0355005300420032002E0030FD
:10185000000C03550053004200200020000005004A
:1018600004021F0000002020202020202020556C92
:1018700074726120555342322E3020202020322EA7
:101880003020008004021F000000202020202020A3
:101890002020556C74726120555342322E30202026
:1018A0002020322E3020001F3FFF000010000B00D0
:1018B000000800000400000002000006000008000C
:1018C00000080000040000000200001201010014E2
:1018D0000100000000000014AA0000000C6C0601CA
:0618E000005E00000000A4
:00000001FF
