:10000000021BC390001074FFF0A3742BF0A374A123
:10001000F0E47F08FEFDFC900027E0F8A3E0F9A3E0
:10002000E0FAA3E0FBD312101E400A900027121042
:100030006100000008E4900014F0900013F09000BC
:100040001AF02202063990023312106100041000E7
:10005000E4900237F0A3F074FFA3F0A3F0E4A3F060
:10006000A3F0A3F0A3F0A37420F0E4A3F0A3F0C8DE
:100070007442C8CC7402CCCD7401CD7BFF7A2A794E
:1000800036FE7F27120F15C87469C8CC7402CCCD18
:100090007401CD7BFF7A2A795D7E007F1A120F15DD
:1000A000E4900283F0A3F0C87485C8CC7402CCCD70
:1000B0007401CD7BFF7A2A7977FE7F1A120F159093
:1000C000029FE4F0A3740DF090023E74FFF5F0126D
:1000D0000FB945F07003020263900237E07002A38B
:1000E000E06003020263900233E0FCA3E0FDA3E0C2
:1000F000FEA3E0FF9002A5E4F0A37480F0A37401D6
:10010000F0A37401F0A374B3F0121CD9E490024080
:10011000F0A3F0900240E0FEA3E0FFC39480EE94D1
:1001200000400302024174B32FF58274013EF5834F
:10013000E064416003020230900240A3E024B4F581
:100140008274013EF583E06455600302023074B5A9
:100150002FF58274013EF583E0645460030202309F
:10016000900240A3E024B6F58274013EF583E0647A
:100170004F600302023074B72FF58274013EF5839D
:10018000E064526003020230900240A3E024B8F51C
:100190008274013EF583E06455600302023074B955
:1001A0002FF58274013EF583E0644E600302023055
:1001B000900240A3E024BBF58274013EF583E06425
:1001C00049706D74BC2FF58274013EF583E0644E76
:1001D000705E900240A3E024BDF58274013EF58379
:1001E000E06446704B900240E0FCA3E0FD24CEF5B5
:1001F0008274013CF583E0FE74CD2DF58274013CE0
:10020000F583E07C002400FFEC3EFEEF2402FFE4D7
:100210003EFE3395E0FDFCE4FBFA7901F8120FCFC6
:10022000900233121055900237E4F0A304F08011CD
:10023000900241E02420F0900240E03400F00201FE
:1002400013900233E0FCA3E0FDA3E0FEA3E02480D2
:10025000FFE43EFEE43DFDE43CFC90023312105509
:100260000200C890023EE4F0A37420F0900237E050
:100270007002A3E0700A90023312106100060000C1
:1002800090023E74FFF5F0120FB945F070030206BC
:1002900038C29475F90B30FBFD900233A3E0FDA347
:1002A000E0FEA3E0FFE4FC781012102F8FF930FB82
:1002B000FD900233A3A3E0FEA3E0FFE4FDFC780879
:1002C00012102F8FF930FBFD900233A3A3A3E0FFA0
:1002D0008FF930FBFD75F9FF30FBFD90023974FF9B
:1002E000F5F0120FB945F0700302060D75F9FF30F5
:1002F000FBFD90023BE5F9F0E4900240F0A3F090A2
:10030000029FE0FEA3E0FF900240E0FCA3E0FDC3FB
:100310009FEC9E400302041BED25E0FFEC33FE74CE
:10032000692FF58274023EF583E0FEA3E0FF9002A0
:100330004275F003ED121092EC75F003A42583F5DD
:1003400083E0FBA3E0FAA3E0F98F828E83120F54BF
:10035000FF90023BE06F60030203EF900240A3E0D6
:1003600025E0FFEC33FE74692FF58274023EF583BD
:10037000E475F001120FA374692FF58274023EF543
:1003800083E0FEA3E0FF90024275F003ED121092AD
:10039000EC75F003A42583F583E0FBA3E0FAA3E06A
:1003A000F98F828E83120F547060900240E0FCA39C
:1003B000E0FD25E0FFEC33FE74852FF58274023EEC
:1003C000F583E4F0A304F074692FF58274023EF51E
:1003D00083E4F0A3F0ED4C703190023CE07002A396
:1003E000E0700990023CF0A304F0801ED2942290A9
:1003F0000241E025E0FF900240E033FE74692FF5F2
:100400008274023EF583E4F0A3F0900241E004F030
:100410007006900240E004F00202FFE4900283F0D4
:10042000A3F0900240F0A3F090029FE0FEA3E0FF53
:10043000900240E0FCA3E0FDC39FEC9E5032ED250E
:10044000E0FFEC33FE74692FF58274023EF583E021
:10045000FEA3E0FF900284E02FF0900283E03EF0E4
:10046000900241E004F070C0900240E004F080B8D7
:10047000E4900240F0A3F090029FE0FEA3E0FF9022
:100480000240E0FCA3E0FDC39FEC9E5032ED25E06E
:10049000FFEC33FE74852FF58274023EF583E0FE97
:1004A000A3E0FF900284E02FF0900283E03EF09002
:1004B0000241E004F070C0900240E004F080B89087
:1004C000023CE07002A3E0601E900283E07002A391
:1004D000E0701490023BE0FF640A600BEF640D6073
:1004E00006EF600312165CE4900240F0A3F0900265
:1004F0009FE0FEA3E0FF900240E0FCA3E0FDC39F6D
:10050000EC9E40030202DBED25E0FFEC33FE748538
:100510002FF58274023EF583E0FEA3E04E700302E5
:1005200005FCEC60030205D3ED14B40C004003029B
:1005300005D390054075F003A4C58325F0C58373EA
:1005400002056402056B02057102057702057D0252
:10055000058302058902058F02059502059B0205A8
:10056000AB0205B47F0A12165C8068E4FD7F02804E
:10057000357D39E4FF802FE4FD7F0880297D157FDC
:100580000880237D3D7F04801D7D077F0880177DC7
:100590000F7F0880117D087F08800B7D047F10127B
:1005A0002289E4FD7F4C12228980287FF47E01128B
:1005B0002351801F9002A57429F0A374B6F0A3E420
:1005C000F0A37480F07F007E007D007C0012112972
:1005D000122431900241E025E0FF900240E033FE1A
:1005E00074692FF58274023EF583E4F0A3F07485FC
:1005F0002FF58274023EF583E4F0A3F0900241E00F
:1006000004F07006900240E004F00204EE90023321
:10061000E0FCA3E0FDA3E0FEA3E024FFFFEE34FF37
:10062000FEE43DFDE43CFC90023312105575F9FFE9
:1006300030FBFDD29402028022C0E0C0F0C083C033
:1006400082C0D075D00820D903020A92E5D9543F60
:100650007003020A8814602E24E17003020A0A243F
:10066000FE607A24F270030206F1240F6003020A8E
:100670008E300A028055300D02805CE5D254FC4475
:1006800002F5D2020A8E20DE03020A8E300C061218
:1006900019C1020A8E90018AE5DBF0E07003020ABC
:1006A0008EE4FF90018AE06F6015744A2FF582E4B2
:1006B0003400F583E0FE74222FF8EEF60F80E4128A
:1006C0001ED8300C03020A8E300A061217B1020A35
:1006D0008E300E03020A8E121D5D020A8E75D50041
:1006E000E5D454FC4402F5D49000157401F0020ADC
:1006F0008E90018AE5DBF0E0640860030209D29085
:100700000006E090000BF0900007E0700D90000BE9
:10071000E0D3947F74809480400690000B747FF047
:1007200090018AE4F0900000E0546070030207BA80
:10073000A3E090000AF064FE60030209D890000C68
:1007400074FFF0A3742BF0A37458F090018A740125
:10075000F090000BE0D39401400890018AE09000F3
:100760000BF090000BE0FFC3940874809480400766
:100770007E08CFEECF800090018AEFF07E00C87433
:1007800000C8CC7400CCCD7401CD90000CE0FBA36C
:10079000E0FAA3E0F9120F1590000BE0FF90018A38
:1007A000E0FEC3EF9E90000BF0EEFF90000DE48F93
:1007B000F0120FA390002C0209AA900001E0900013
:1007C0000AF070030209AF14700302094824FC7098
:1007D0000302090C24FD70030209171470030209B7
:1007E00034147003020995240460030209D09000B8
:1007F00003E024FE602814603B24E17003020884B7
:10080000242160030208A290000C74FFF0A3742A54
:10081000F0A374EFF090018A7412F00208A890001F
:100820000C74FFF0A3742BF0A37401F090018A7490
:1008300039F08074900002E014601D1460302402CE
:10084000706090000C74FFF0A3742BF0A3743AF066
:1008500090018A7404F0805090000C74FFF0A3742F
:100860002BF0A3743EF090018A740EF0803A900051
:100870000C74FFF0A3742BF0A3744CF090018A74F5
:100880000CF08024900002E0701690000C74FFF0D1
:10089000A3742AF0A374B0F090018A743FF080082A
:1008A000800090018A74FFF090018AE0FF90000BB5
:1008B000E0D39F4002EFF090000BE0FFC394087478
:1008C00080948040077E08CFEECF800090018AEFB1
:1008D000F07E00C87400C8CC7400CCCD7401CD90FB
:1008E000000CE0FBA3E0FAA3E0F9120F1590000B57
:1008F000E0FF90018AE0FEC3EF9E90000BF0EEFF58
:1009000090000DE48FF0120FA30209D8900002E0CE
:1009100090000BF00209D890000FE0900000F090DA
:10092000000BE0C394017480948050030209D890B6
:10093000018A8076900002E090000FF07BFF7A2A17
:100940007991120B4B0209D8900000E0541F640209
:100950007041900004E01460291460112481601239
:10096000147030E5D454BC4402F5D4806B53D47376
:100970008066E5D254BC4402F5D2300D0E121D5DE6
:10098000800953D273300D03121D5DA20E9209C26D
:100990000E8045803D900000E4F090000BE0C39491
:1009A0000174809480403190018A7401F080299014
:1009B0000000E4F0A3F090000BE0FFC39402748009
:1009C000948090018A40057402F0800CEFF080085A
:1009D000800090018A74FFF090018AE0FF7E00F4AD
:1009E000700C90000A74FFF075DCCF020A8ED3EF12
:1009F0009408EE64809480500890018AE0F5DD80D0
:100A00000375DD0075DCC0020A8E90000AE024FB4D
:100A1000606014706B90000BE0FFC39408748094C6
:100A20008040077E08CFEECF800090018AEFF07EF5
:100A300000C87400C8CC7400CCCD7401CD90000CFB
:100A4000E0FBA3E0FAA3E0F9120F1590000BE0FF22
:100A500090018AE0FEC3EF9E90000BF0EEFF900045
:100A60000DE48FF0120FA390018AE0F5DD63DC4006
:100A7000801CE5E35480FF90000BE04FF5E380031A
:100A800075DD0075DC02800675DD0063DC80C2D98F
:100A9000804330D8227BFF7A2A7999120B4B75DC80
:100AA0000275D21275D41275E300C2DAC2D9C2D867
:100AB00090002CE4F0801E30DA18C2DAE5DA7BFF11
:100AC00030E2067A2A79A080047A2A79A9120B4B9F
:100AD000800375D8FFD0D0D082D083D0F0D0E03260
:100AE000E510248EF582E43401F583E005102290B0
:100AF000018B30070390018EE475F001121103029F
:100B00000F3B2000E97F2ED2008018EF540F249075
:100B1000D43440D4FF30040BEF24BFB41A00500388
:100B20002461FFE511600215110514E5147002053A
:100B30001330070E90018BE475F001121103EF02E0
:100B400010F10222C87403D2078003E4C207F51033
:100B500090018B12111AE4F511F513F514E51160EB
:100B6000077F20120B2380F57512FFC201C200C25D
:100B700002C203C205C206C208120AEFFF700D309E
:100B800007057F00120B34AF14AE1322B4255FC2E9
:100B9000D5C204120AEFFF24D0B40A00501A75F02F
:100BA0000A781130D50508B6FF0106C6A426F6203E
:100BB000D5047002D20380D924CFB41A00EF5004B8
:100BC000C2E5D204020D35D20180C6D20080C0D267
:100BD0000280BCD2D580BAD20580B47F20120B230C
:100BE0002002077401B5110040F1120AE0FF120B58
:100BF00023020B5DD208D2068095120AE0FB120A8E
:100C0000E0FA120AE0F94A4B700679067A0E7BFF89
:100C100020022EE511602A7E008E82758300120F5D
:100C20005460060EEE651270F0C2D5EBC0E0EAC06B
:100C3000E0E9C0E0EE120D7CD0E0F9D0E0FAD0E0BF
:100C4000FB120F3BFF60AAEBC0E0EAC0E0E9C0E0A6
:100C5000120B23D0E02401F9D0E03400FAD0E0FBFD
:100C6000E5120460DCD512D980877BFF7A0D797894
:100C7000D202809C791080027908C206C2088008DE
:100C8000D2D5790A8004790AC2D5E512047002F53A
:100C900012E4FAFDFEFF120AE0FC7B0820011312A9
:100CA0000AE0FD7B1030000A120AE0FE120AE0FFA3
:100CB0007B20EC3382D592D55013C3E43000069FDD
:100CC000FFE49EFEE42001039DFDE49CFCE4CBF8E0
:100CD000C201EC700CCFCECDCCE824F8F870F380D4
:100CE00017C3EF33FFEE33FEED33FDEC33FCEB3394
:100CF000FB994002FB0FD8E9EB300105F8D0E0C4C6
:100D000048B201C0E00AEC4D4E4F78207B0070C223
:100D1000EAB5120040BCC0E0120D7ED0F0D0E02059
:100D20000104C4C0E0C4B201C0F0120B0CD0F0D575
:100D3000F0EB020B5D12109E0BFA530C74580BCBA8
:100D40004C0BC7420C784F0C80440C80490BE0439D
:100D50000C86550C6A460C6A450C6A470E26500BE9
:100D6000CF2D0BD32E0BF62B0BD7230BF4200E0F0E
:100D70002A0B8F4800000BEE3F3F3F00790AA2D5B7
:100D8000200314300509B910020404B9080104A2B3
:100D9000D52006025001042002689202B5110050CD
:100DA00034C0E07F203003197F30A2027206720542
:100DB000500F120DD5C202C206C205C2087F308094
:100DC0000F300503E9C0E0120B23300503D0E0F932
:100DD000D0E0B511CC3005177F30B9100C120B23C1
:100DE0007F583004077F788003B90803120B233043
:100DF00002057F2D020B237F202008F87F2B200681
:100E0000F322920280CF286E756C6C2900D20112F9
:100E10000AE03001F8C201781130D50108F6020B62
:100E20008F2D50434958120AE02403B405004001B5
:100E3000E4900E2193120B14743A120B14D2037522
:100E40001104020C74E709F608DFFA8046E709F29C
:100E500008DFFA803E88828C83E709F0A3DFFA80FE
:100E600032E309F608DFFA8078E309F208DFFA8056
:100E70007088828C83E309F0A3DFFA806489828A18
:100E800083E0A3F608DFFA805889828A83E0A3F220
:100E900008DFFA804C80D280FA80C680D4806980D6
:100EA000F28033801080A680EA809A80A880DA8061
:100EB000E280CA803389828A83ECFAE493A3C8C5AE
:100EC00082C8CCC583CCF0A3C8C582C8CCC583CCAE
:100ED000DFE9DEE7800D89828A83E493A3F608DFE9
:100EE000F9ECFAA9F0EDFB2289828A83ECFAE0A3FF
:100EF000C8C582C8CCC583CCF0A3C8C582C8CCC540
:100F000083CCDFEADEE880DB89828A83E493A3F284
:100F100008DFF980CC88F0EF60010E4E60C388F0E6
:100F2000ED2402B4040050B9F582EB2402B40400AD
:100F300050AF2323458223900E9573BB010689820F
:100F40008A83E0225002E722BBFE02E32289828AE2
:100F500083E49322BB010CE58229F582E5833AF50F
:100F600083E0225006E92582F8E622BBFE06E92549
:100F700082F8E222E58229F582E5833AF583E4935B
:100F800022F8BB010DE58229F582E5833AF583E875
:100F9000F0225006E92582C8F622BBFE05E925822B
:100FA000C8F222C5F0F8A3E028F0C5F0F8E58215F4
:100FB0008270021583E038F022A3F8E0C5F025F036
:100FC000F0E582158270021583E0C838F0E822E867
:100FD0008FF0A4CC8BF0A42CFCE98EF0A42CFC8A1E
:100FE000F0EDA42CFCEA8EF0A4CDA8F08BF0A42D9B
:100FF000CC3825F0FDE98FF0A42CCD35F0FCEB8E3C
:10100000F0A4FEA9F0EB8FF0A4CFC5F02ECD39FEF1
:10101000E43CFCEAA42DCE35F0FDE43CFC22EB9F41
:10102000F5F0EA9E42F0E99D42F0E89C45F022E8A6
:10103000600FECC313FCED13FDEE13FEEF13FFD8AE
:10104000F122E8600FEFC333FFEE33FEED33FDEC2A
:1010500033FCD8F122ECF0A3EDF0A3EEF0A3EFF017
:1010600022A8828583F0D083D08212107812107863
:10107000121078121078E473E493A3C583C5F0C509
:1010800083C8C582C8F0A3C583C5F0C583C8C5821F
:10109000C822A42582F582E5F03583F58322D0832A
:1010A000D082F8E4937012740193700DA3A393F8A7
:1010B000740193F5828883E4737402936860EFA3EC
:1010C000A3A380DFEC8EF0A4CCC5F0CCCDF8EFA4C8
:1010D000CEC5F02DFDE43CFCE8A42EC8C5F03DFDD6
:1010E000E43CFCEFA4FFE5F028FEE43DFDE43CFC1D
:1010F00022BB010689828A83F0225002F722BBFEBE
:1011000001F322F8E0FBA3A3E0F925F0F0E5821556
:101110008270021583E0FA38F022EBF0A3EAF0A324
:10112000E9F0227F007E107C009002A11210557F12
:10113000007E107D007C009002A1E0F8A3E0F9A3FE
:10114000E0FAA3E02FFFEA3EFEED39FDEC38FC901B
:1011500002A91210559002A1E0FCA3E0FDA3E0FE5D
:10116000A3E0FF9002AD1210559002A1121FC8908B
:1011700002A7E0FEA3E0FFE4FCFD9002A1E0F8A3DB
:10118000E0F9A3E0FAA3E02FFFEA3EFEED39FDEC23
:1011900038FC9002ADE0F8A3E0F9A3E0FAA3E0FB8D
:1011A000C312101E40030212B69002A1E0F8A3E0A1
:1011B000F9A3E0FAA3E0FB9002ADE0FCA3E0FDA3FD
:1011C000E0FEA3E0C39BFBEE9AFAED99F9EC98F8E8
:1011D0009002A7E0FEA3E0FFC3EF9BFFEE9AFEE4C0
:1011E00099FDE498FCE47B40FAF9F8D312101E4014
:1011F000339002A1A3A3E0FEA3E0FFCBEFCBCAEEA6
:10120000CA9002ADA3A3E0FEA3E09BFFEE9AFEC34B
:101210009002A8E09FFF9002A7E09E9002B1F0A389
:10122000EFF080099002B1E4F0A37440F09002B1B5
:10123000E0FFA3E09002B7CFF0A3EFF09002A1A3EC
:10124000A3E0FEA3E0FFCBEFCBCAEECA9002ADA3B2
:10125000A3E0FEA3E0C39BFFEE9AFE9002A6E02F60
:10126000FF9002A5E03EFECAEECAC9EFC99002B9DE
:1012700074FFF0A3EAF0A3E9F09002ADE0FCA3E074
:10128000FDA3E0FEA3E0FF121AA49002ADE0F8A3D4
:10129000E0F9A3E0FAA3E0FBA3E0FEA3E0FFE4FC97
:1012A000FDEB2FFFEA3EFEED39FDEC38FC9002AD80
:1012B00012105502116F9002A9E0FCA3E0FDA3E01B
:1012C000FEA3E0FFA3E0F8A3E0F9A3E0FAA3E0FBAC
:1012D000C312101E400302137E9002ADE0F890028C
:1012E000A9E0FCA3E0FDA3E0FEA3E0C39BFFEE9A10
:1012F000FEED99FDEC98FCE47B40FAF9F8D312106E
:101300001E40269002ADE0F8A3E0F9A3E0FAA3E0C6
:10131000FB9002A9E0FCA3E0FDA3E0FEA3E09BFF9D
:10132000EE9AFEED99EC988004E47F40FE9002B1C5
:10133000EEF0FAA3EFF0FBCACACBCB9002ADE0FC13
:10134000A3E0FDA3E0FEA3E0FF9002B7EAF0EB12FA
:101350001A969002ADE0F8A3E0F9A3E0FAA3E0FB4F
:10136000A3E0FEA3E0FFE4FCFDEB2FFFEA3EFEED71
:1013700039FDEC38FC9002AD1210550212B62290E5
:1013800001B312106100000000E4FFFE7D08FC9034
:1013900001B3E0F8A3E0F9A3E0FAA3E0FBC3121065
:1013A0001E50289001B3121FC89001B3E0FCA3E0C7
:1013B000FDA3E0FEA3E02400FFEE3410FEE43DFDBB
:1013C000E43CFC9001B312105580BE9001B31210A2
:1013D0006100000000E4FFFE7D08FC9001B3E0F82E
:1013E000A3E0F9A3E0FAA3E0FBC312101E5039906A
:1013F00001B3E0FCA3E0FDA3E0FEA3E0FF9002B791
:10140000E4F07480121A969001B3E0FCA3E0FDA30F
:10141000E0FEA3E02480FFE43EFEE43DFDE43CFC6E
:101420009001B312105580AD9002A57424F0A374FE
:10143000B6F0A37402F0A3E4F0FFFEFDFC12112944
:101440009002A57426F0A374B6F0A3E4F0A3744050
:10145000F07D001211239002A57426F0A374B6F05B
:10146000A3E4F0A37440F07D021211239002A5744E
:1014700026F0A374F6F0A3E4F0A37480F07F007E5E
:10148000107D047C001211299002A57427F0A3742A
:1014900076F0A37401F0A3E4F0FF7E507D04FC120B
:1014A00011299002A57428F0A37476F0A3E4F0A3A8
:1014B0007440F07F007E507D057C0012112990025F
:1014C000A57428F0A374B6F0A3E4F0A37480F07FB1
:1014D000007EC07D057C001211299002A57429F0C0
:1014E000A37436F0A3E4F0A37480F07F007E507DF7
:1014F000067C000211297838E6FFE4FCFDFE78083E
:10150000121042ECC0E0EDC0E0EEC0E0EFC0E078C9
:1015100039E6FFD0E0FBD0E0FAD0E0F9D0E0F8EB1C
:101520004FFFEAFEE9FDE8FCE4FB7A10F9F8120F40
:10153000CF9000271210557834E6FFE4FCFDFE78CA
:1015400010121042ECC0E0EDC0E0EEC0E0EFC0E0F1
:101550007833E6FFE4FCFDFE7818121042D0E0FB81
:10156000D0E0FAD0E0F9D0E0F8EF4BFFEE4AFEED24
:1015700049FDEC48C0E0EDC0E0EEC0E0EFC0E0782F
:1015800035E6FFE4FCFDFE7808121042D0E0FBD007
:10159000E0FAD0E0F9D0E0F8EF4BFFEE4AFEED497B
:1015A000FDEC48C0E0EDC0E0EEC0E0EFC0E0783612
:1015B000E6FFD0E0FBD0E0FAD0E0F9D0E0F8EB4F66
:1015C000FFEAFEE9FDE8FC900016121055900016A7
:1015D000E0FCA3E0FDA3E0FEA3E0FFE4FB7A10F94A
:1015E000F8120FCF9000161210557F407E4B7D4CA5
:1015F0007C00900016E0F8A3E0F9A3E0FAA3E0FB7A
:10160000C312101E50487839E690018CF0E4900126
:101610008BF090018CE0FF90018BE0FEC39F502E79
:10162000EEFF7E007C107D001210C4900016E0F8E2
:10163000A3E0F9A3E0FAA3E02FFFEA3EFEE93DFDB7
:10164000E83CFC121FD390018BE004F080C4E490CE
:101650000014F0900013F090001AF0229002A1EF15
:10166000F0C39461400CE0FFD3947A5005EF24A3BB
:10167000802A9002A1E0FFC39441400DEFD3945A19
:101680005007E024C3FD02179F9002A1E0FFC3941E
:1016900031400DEFD394395007E024EDFD0217A53A
:1016A0009002A1E012109E17A30917A90A171C2087
:1016B000172121178522172923172D2417312517C4
:1016C0003926178127174128174529173D2A17550D
:1016D0002B17892C17492D17912E17992F17173073
:1016E00017753A17713B178D3C17513D17953E17EB
:1016F0009D3F17254017595B17695C17615D1735CA
:101700005E174D5F177960175D7B176D7C17657DE0
:10171000177D7E000017B07D270217A57D2C0217CC
:10172000A57D1E807A7D1F80767D2080727D218040
:101730006E7D22806A7D2380667D2480627D258087
:101740005E7D26805A7D2780567D2D80587D2D8098
:101750004E7D2E80507D2E80467D2F80487D2F80AF
:101760003E7D3080407D3080367D3180387D3180D7
:101770002E7D3380307D3380267D3280287D3280FF
:101780001E7D3480207D3480167D3680187D368025
:101790000E7D3780107D3780067D3880087D387F4C
:1017A00002800A7D2BE4FF80047D28E4FF12228959
:1017B00022E47F40FEFDFC900027E0F8A3E0F9A3BF
:1017C000E0FAA3E0FBD312101E402A90018B744074
:1017D000F0900027E0FCA3E0FDA3E0FEA3E094402E
:1017E000FFEE9400FEED9400FDEC9400FC900027C9
:1017F0001210558017900027A3A3A3E090018BF04F
:1018000090002712106100000000C20A300B709097
:101810000016E0FCA3E0FDA3E0FEA3E0FF90018B37
:10182000E0FB9002A5E4F0A3EBF0A37401F0A37435
:1018300000F0A3748AF0121CD9900016E0F8A3E01F
:10184000F9A3E0FAA3E0FB90018BE0FFE4FCFDFECE
:10185000EB2FFFEE3AFEED39FDEC38FC900016124E
:101860001055E4FFFEFDFC900027E0F8A3E0F9A38B
:10187000E0FAA3E0FBC312101E7038C20B8034E400
:10188000FF90018BE0FEEFC39E5028900010E0FB1C
:10189000A3E0FAA3E0F9120F3BFE748A2FF582E46D
:1018A0003400F583EEF0900011E475F001120FA3FF
:1018B0000F80CE90018BE0F5D353D2FC227838E62E
:1018C000FFE4FCFDFE7808121042ECC0E0EDC0E041
:1018D000EEC0E0EFC0E07839E6FFD0E0FBD0E0FA00
:1018E000D0E0F9D0E0F8EB4FFFEAFEE9FDE8FCE4D8
:1018F000FB7A10F9F8120FCF9000271210557834A8
:10190000E6FFE4FCFDFE7810121042ECC0E0EDC0F2
:10191000E0EEC0E0EFC0E07833E6FFE4FCFDFE78E7
:1019200018121042D0E0FBD0E0FAD0E0F9D0E0F895
:10193000EF4BFFEE4AFEED49FDEC48C0E0EDC0E0A4
:10194000EEC0E0EFC0E07835E6FFE4FCFDFE78088D
:10195000121042D0E0FBD0E0FAD0E0F9D0E0F8EF8E
:101960004BFFEE4AFEED49FDEC48C0E0EDC0E0EE75
:10197000C0E0EFC0E07836E6FFD0E0FBD0E0FAD080
:10198000E0F9D0E0F8EB4FFFEAFEE9FDE8FC90005B
:1019900016121055900016E0FCA3E0FDA3E0FEA394
:1019A000E0FFE4FB7A10F9F8120FCF900016121046
:1019B00055E4900014F0900013F090001AF0D20B50
:1019C0002290018BE5DBF0E4FF90018BE0FB6F6080
:1019D00015744A2FF582E43400F583E0FE74622F1B
:1019E000F8EEF60F80E3900016E0FCA3E0FDA3E024
:1019F000FEA3E0FF9002B7E4F0A3EBF0A3E4F0A3B2
:101A00007400F0A37462F0121AA4900016E0F8A318
:101A1000E0F9A3E0FAA3E0FB90018BE0FFE4FCFD1A
:101A2000FEEB2FFFEE3AFEED39FDEC38FC90001690
:101A3000121055900027E0FCA3E0FDA3E0FEA3E018
:101A4000FFECC0E0EDC0E0EEC0E0EFC0E090018B45
:101A5000E0FFCBEFCBD0E0FFD0E0FED0E0FDD0E068
:101A6000FCC3EF9BFFEE9400FEED9400FDEC9400B0
:101A7000FC900027121055E4FFFEFDFC900027E0CB
:101A8000F8A3E0F9A3E0FAA3E0FBC312101E70056F
:101A9000C20C121D5D22A3F0A374FFF0A37429F001
:101AA000A374B6F09002B312105512243BE4FF1257
:101AB00023D3122426C29475F90230FBFD9002B3A1
:101AC000A3E0FDA3E0FEA3E0FFE4FC781012102FDA
:101AD0008FF930FBFD9002B3A3A3E0FEA3E0FFE487
:101AE000FDFC780812102F8FF930FBFD9002B3E057
:101AF000FCA3E0FDA3A3E0FF8FF930FBFDE4FFFEB4
:101B0000D39002B8E09F9002B7E09E401E9002B9C9
:101B1000E0FBA3E0FAA3E0F98F828E83120F54F565
:101B2000F930FBFD0FBF00010E80D5D29412241BAB
:101B300002243BC20A9000137405F090001A74202E
:101B4000F09000147401F07F0FEFB4100050739008
:101B50001B56F8282873021B86021B86021B8E0266
:101B60001B8E021B90021B90021B86021B92021B03
:101B700092021B99021B9E021B99021B88021B9E4C
:101B8000021BA8021B908000E4900014F022800247
:101B9000802543D203D20E801743D20C801C43D23F
:101BA00003D20E43D20C800843D203D20E43D20C90
:101BB0009000147402F02243D203D20E90001474E9
:101BC00001F022787FE4F6D8FD7581A1021C0A029B
:101BD000208CE493A3F8E493A34003F68001F20879
:101BE000DFF48029E493A3F85407240CC8C333C45A
:101BF000540F4420C8834004F456800146F6DFE4C5
:101C0000800B01020408102040809022EFE47E0146
:101C10009360BCA3FF543F30E509541FFEE493A337
:101C200060010ECF54C025E060A840B8E493A3FA49
:101C3000E493A3F8E493A3C8C582C8CAC583CAF0D5
:101C4000A3C8C582C8CAC583CADFE9DEE780BE78FB
:101C500031E612109E1C89001C8F031C83121CA6E7
:101C60001A1CAC1B1CB61E1C98231C92251C8C280D
:101C70001C862A1C952F1CB9431CBC4A1CA95A005F
:101C8000001CBF021E5E0214F602239F0218BD0252
:101C90001F5202000302240DE4900014F090001380
:101CA000F090001AF0220221F502223F1223B19097
:101CB000002D7401F0220223FF02214302219C9097
:101CC00000137405F090001A7420F0900014740151
:101CD000F0C20A7F0E121B49229002A1121055C2B7
:101CE0009475F90B30FBFD9002A1A3E0FDA3E0FE8B
:101CF000A3E0FFE4FC781012102F8FF930FBFD9069
:101D000002A1A3A3E0FEA3E0FFE4FDFC780812100B
:101D10002F8FF930FBFD9002A1A3A3A3E0FF8FF961
:101D200030FBFDE4F5F930FBFDE4FFFED39002A6A5
:101D3000E09F9002A5E09E402175F9FF30FBFD90E9
:101D400002A7E0FBA3E0FAA3E0F98F828E83E5F916
:101D5000120F810FBF00010E80D2D294229000108A
:101D6000E4F0A37400F0A37422F0C20DC20AF87666
:101D70005508765308764208765390001BE008F623
:101D8000A3E008F6A3E008F6A3E008F6E408F608E6
:101D9000F6900028E008F6900027E008F69000147E
:101DA000E008F6E4FFEFC3940D748094805028900F
:101DB0000010E0FBA3E0FAA3E0F9120F3BFE748AE7
:101DC0002FF582E43400F583EEF0900011E475F015
:101DD00001120FA30F80CE75D30D53D2FC229001B8
:101DE000B412106100041000E49001B3F09001B34C
:101DF000E0FFC39410748094805032E4FCFDFEA395
:101E0000E0F8A3E0F9A3E0FAA3E02FFFEE3AFEED3D
:101E100039FDEC38FC1220E89001B3E09026F693EF
:101E20006F6002C3229001B3E004F080C0E490012F
:101E3000B3F09001B3E0FFC3941074809480501C01
:101E4000E4FCFDFE1220E89001B3E09024B6936F0D
:101E50006002C3229001B3E004F080D6D322900048
:101E60002BE0703490001074FFF0A3742BF0A37477
:101E70007DF0E47F24FEFDFC900027E0F8A3E0F96C
:101E8000A3E0FAA3E0FBD312101E403E90002712FD
:101E9000106100000024803290001074FFF0A374E1
:101EA0002BF0A37459F0E47F24FEFDFC900027E0A2
:101EB000F8A3E0F9A3E0FAA3E0FBD312101E400A56
:101EC00090002712106100000024E4900014F090AC
:101ED0000013F090001AF0227822E66455706F0823
:101EE000E66453706708E66442705F08E664437016
:101EF0005D782AE690002AF008E6900029F008E6CE
:101F0000900028F008E6900027F07826E690001B65
:101F1000F008E6A3F008E6A3F008E6A3F090002797
:101F2000E0FCA3E0FDA3E0FEA3E0FFEC4D4E4F601C
:101F300014782EE6D330E701C3920C782EE6C33036
:101F4000E701D3920AD20D021C4F8002800043D2D7
:101F50000322A209720E5030A20E9209C20E7822FC
:101F60007670E408F6900013E008F6E408F608F648
:101F700008F608F608760A08F608F608F608F69055
:101F8000001AE008F6E48024A20E9209C20E78221C
:101F90007670E408F608F608F608F608F608F6087B
:101FA000760A08F608F608F608F608F608F608F6BF
:101FB00008F608F608F6900010F0A37400F0A37479
:101FC00022F0E4900014F022E0FCA3E0FDA3E0FE88
:101FD000A3E0FF9002B31210551223F1C29475F9D9
:101FE0002030FBFD9002B3A3E0FDA3E0FEA3E0FFE1
:101FF000E4FC781012102F8FF930FBFD9002B3A390
:10200000A3E0FEA3E0FFE4FDFC780812102F8FF997
:1020100030FBFD9002B3E0FCA3E0FDA3E0FEA3E0F3
:10202000FF8FF930FBFDD29402243BE4F5E253E24A
:102030007F43E229F5E353E2BF53D1FB75D18043DF
:10204000D101CE7400CECF744ACF8EEF8FEE75EAF9
:10205000C075D212CE7400CECF7400CF8EED8FEC4F
:1020600075DC02F5DDF5D3CE7401CECF740ACF8EC8
:10207000E58FE475EB0475D412F5D543E10443E133
:102080000243E10143D81FD2EAD2AF2212237B7F61
:10209000647E001223511223E3209105E490002B6B
:1020A000F07FF47E01122351121DDE400312137FD4
:1020B00012202B90002CE060FA7FD07E0712235173
:1020C00090002BE06401700312004690002DE06444
:1020D00001700C90002BE06401700490002DF07FE3
:1020E000647E0012235180E39001B8121055E4FB86
:1020F000C29475F90330FBFD9001B8A3E0FDA3E0A5
:10210000FEA3E0FFE4FC781012102F8FF930FBFDE6
:102110009001B8A3A3E0FEA3E0FFE4FDFC78081261
:10212000102F8FF930FBFD9001B8A3A3A3E0FFE4CB
:102130008FF930FBFD75F9FF30FBFDABF9D294CF81
:10214000EBCF22C8748BC8CC7401CCCD7401CD7B8D
:10215000FF7A2B79C57E007F14120F159000107442
:1021600001F0A37401F0A3748BF0E47F14FEFDFC76
:10217000900027E0F8A3E0F9A3E0FAA3E0FBD31274
:10218000101E400A90002712106100000014E49015
:102190000014F0900013F090001AF022C8748BC85D
:1021A000CC7401CCCD7401CD7BFF7A2B79D97E0024
:1021B0007F08120F159000107401F0A37401F0A3B2
:1021C000748BF0E47F08FEFDFC900027E0F8A3E0AC
:1021D000F9A3E0FAA3E0FBD312101E400A900027F7
:1021E00012106100000008E4900014F0900013F059
:1021F00090001AF0227833E6643F703F7F0CFEFDBA
:10220000FC900027E0F8A3E0F9A3E0FAA3E0FBD3F9
:1022100012101E400A9000271210610000000C905E
:10222000001074FFF0A3742BF0A374A9F0E49000E5
:1022300014F0900013F090001AF022121B33227851
:1022400033E6643F703F7F10FEFDFC900027E0F80E
:10225000A3E0F9A3E0FAA3E0FBD312101E400A901A
:1022600000271210610000001090001074FFF0A30E
:10227000742BF0A374B5F0E4900014F0900013F008
:1022800090001AF022121B3322E4900015F0900007
:102290001FEFF0CFEDCF900021EFF012233190002F
:1022A00015E060FA7F057E00122351E4900015F0DE
:1022B00090001FF0900021F0122331900015E06093
:1022C000FA7F057E00022351EFB40A07740D122233
:1022D000D3740A309811A899B8130CC2983098FD9D
:1022E000A899C298B811F63099FDC299F599224182
:1022F000002C0041002D0041002B0141000F004146
:1023000000150048001F0000000000000000C10B85
:1023100000759850C2CDC2CC438780E589540F44E4
:1023200020F58943C9A0758BFF758DFFD28ED29998
:1023300022C8740AC8CC7401CCCD7401CD7B017A5B
:1023400000791F7E007F08120F1575D50853D4FC45
:1023500022AD07AC06ED4C600E7FE87E0312238DA4
:10236000ED1D70F11C80EE22C29475F90530FBFD65
:1023700075F9FF30FBFDAFF9D2942275A15575A117
:10238000AAE5B954F84405F5B9E4F5A122EF4E6089
:102390000D05A105A105A1EF1F70F21E80EF22C25D
:1023A0000CC20AE4900014F0900013F090001AF0B0
:1023B00022C20CC20AE4900014F0900013F09000C6
:1023C0001AF02253FC7775FA6075FB024392F043D2
:1023D00093F022C29475F90130FBFD8FF930FBFDBB
:1023E000D294221223111223C3122426E4FF0223C3
:1023F000D3122368EF54026402600312242622E4FD
:10240000900014F0900013F090001AF022E4900075
:1024100014F0900013F090001AF022C29475F904A1
:1024200030FBFDD29422C29475F90630FBFDD294A4
:102430002275A15575A1AA43B11022122368EF207D
:10244000E0F9225B4261645553425D005B456E7466
:1024500065725D005B53686966745D005B43617023
:10246000736C6F636B5D005B57696E5D005B5769F2
:102470006E2B525D005B416C742B46345D005B57E4
:10248000696E2B445D005B57696E2B4C5D005B579A
:10249000696E2B455D005B4374726C2B416C742B31
:1024A00044656C5D005B44656C61795D005B466F03
:1024B000726D61745D00EB3C904D53444F53352E6B
:1024C0003000101001000200020000F820003F0060
:1024D000FF000000000000A00F00800029EBCAF7F9
:1024E000024E4F204E414D45202020204641543180
:1024F0003620202033C98ED1BCF07B8ED9B8002085
:102500008EC0FCBD007C384E247D248BC199E83CF4
:1025100001721C83EB3A66A11C7C26663B07268A67
:1025200057FC750680CA0288560280C31073EB33CD
:10253000C98A461098F7661603461C13561E0346B2
:102540000E13D18B7611608946FC8956FEB82000A7
:10255000F7E68B5E0B03C348F7F30146FC114EFE12
:1025600061BF0000E8E600723926382D741760B1AB
:102570000BBEA17DF3A66174324E740983C7203B64
:10258000FB72E6EBDCA0FB7DB47D8BF0AC98407475
:102590000C487413B40EBB0700CD10EBEFA0FD7D0B
:1025A000EBE6A0FC7DEBE1CD16CD19268B551A523A
:1025B000B001BB0000E83B0072E85B8A5624BE0B0A
:1025C0007C8BFCC746F03D7DC746F4297D8CD989BC
:1025D0004EF2894EF6C606967DCBEA030000200F28
:1025E000B6C8668B46F86603461C668BD066C1EAA1
:1025F00010EB5E0FB6C84A4A8A460D32E4F7E20392
:1026000046FC1356FEEB4A525006536A016A10917B
:102610008B4618969233D2F7F691F7F64287CAF7AF
:10262000761A8AF28AE8C0CC020ACCB80102807E0F
:10263000020E7504B4428BF48A5624CD1361617284
:102640000B40750142035E0B497506F8C341BB00A0
:102650000060666A00EBB0424F4F544D4752202055
:1026600020200D0A52656D6F7665206469736B7367
:10267000206F72206F74686572206D656469612EC9
:10268000FF0D0A4469736B206572726F72FF0D0A49
:10269000507265737320616E79206B657920746F59
:1026A00020726573746172740D0A000000000000EE
:1026B00000ACCBD855AAF8FFFFFFFFFFFFFFFFFFDD
:1026C000000000000000000000000000000000000A
:1026D00000000000000000000000000000000000FA
:1026E00000000000000000000000000000000000EA
:1026F00000000000000042200049006E0066006FEC
:10270000000F007272006D006100740069006F00BC
:1027100000006E0000000153007900730074006532
:10272000000F00726D00200056006F006C007500F5
:1027300000006D00650053595354454D7E312020F3
:10274000201600510B979357935700000C979357FF
:102750000200000000000000000000000000000077
:102760000000000000000000000000000000000069
:102770000000000000002E2020202020202020200B
:10278000201000510B979357935700000C979357C5
:102790000200000000002E2E2020202020202020DB
:1027A000201000510B979357935700000C979357A5
:1027B0000000000000004274000000FFFFFFFFFF68
:1027C000FF0F00CEFFFFFFFFFFFFFFFFFFFFFFFF39
:1027D0000000FFFFFFFF0157005000530065007429
:1027E000000F00CE740069006E00670073002E00B9
:1027F0000000640061005750534554547E314441F9
:102800005420007B0D979357935700000F979357D1
:1028100003000C00000042470075006900640000DE
:10282000000F00FFFFFFFFFFFFFFFFFFFFFFFFFFA6
:102830000000FFFFFFFF0149006E006400650078A3
:10284000000F00FF6500720056006F006C007500FD
:1028500000006D006500494E444558457E312020FA
:10286000202000740E979357935700000F979357AB
:1028700004004C0000000C00000009D054668213D4
:10288000AEDE0000000000000000000000000000BC
:102890000000000000000000000000000000000038
:1028A0000000000000000000000000000000000028
:1028B0000000000000007B003400370039004100B8
:1028C00046004200410037002D0038003000310042
:1028D00046002D0034003700310044002D00420036
:1028E0003800310037002D00390044004600450013
:1028F0004300440041003400340037003600370004
:102900007D0000000000000000000000000000004A
:1029100000000000000000000000000000000000B7
:1029200000000000000000000000000000000000A7
:102930000000000000007B0033004400390032003A
:1029400042004100380037002D00370032003200CD
:1029500045002D0034003200310042002D003800C7
:102960004400340039002D004600390031003600A3
:102970004200430030003100420038004300420072
:102980007D000000000000000000000000000000CA
:102990000000000000000000000000000000000037
:1029A0000000000000000000000000000000000027
:1029B0000000000000000000000000000000000017
:1029C0000000000000000000000000000000000007
:1029D00000000000000000000000000000000000F7
:1029E00000000000000000000000000000000000E7
:1029F00000000000000000000000000000000000D7
:102A000000000000000000000000000000000000C6
:102A100000000000000000000000000000000000B6
:102A200000000000000000000000000000000000A6
:102A3000000000000000FF2443FF244CFF2454FF4B
:102A4000245CFF2467FF246DFF2475FF247EFF2490
:102A500086FF248EFF2496FF24A5FF24AD000000EE
:102A60000000000000000000000000000000000066
:102A70000000000000000000000000000000000056
:102A80000000000000000000000000000000000046
:102A900000436F6E6669670A0052657365740A00C9
:102AA00053757370656E640A004177616B650A0047
:102AB00005010906A101050719E029E7150025010F
:102AC00075019508810295017508810195037501CD
:102AD00005081901290391029505750191019506D3
:102AE0007508150025650507190029658100C012C4
:102AF00001100100000008443333350001010200D9
:102B00000109023900020100806409040000020882
:102B10000650000705010240000007058102400041
:102B20000009040100010301010009211101000154
:102B3000223F0007058203080000040309040E0376
:102B400055005300420032002E0030000C035500A7
:102B5000530042002000200000050004021F000076
:102B6000002020202020202020556C7472612055E8
:102B70005342322E3020202020322E30200080047C
:102B8000021F0000002020202020202020556C74EF
:102B9000726120555342322E3020202020322E30B8
:102BA00020000F9FFF000010000B00000800000431
:102BB00000000002000006000008000008000004F9
:102BC00000000002000012010100140100000000DA
:102BD000000014AA0000000C6C0601005E0000005A
:012BE00000F4
:00000001FF
